:020000040800F2
:1000000000000220B9270008350800083D08000854
:10001000450800084D0800085508000800000000C9
:100020000000000000000000000000005D08000863
:100030006B08000800000000790800088708000825
:1000400009280008092800080928000809280008CC
:1000500009280008092800080928000809280008BC
:1000600009280008092800080928000809280008AC
:10007000092800080928000809280008092800089C
:1000800009280008092800080928000800000000C5
:100090000000000000000000000000000928000827
:1000A000092800080928000809280008092800086C
:1000B00009280008950800080928000809280008F0
:1000C000092800080928000809280008092800084C
:1000D0000928000809280008092800080000000075
:1000E0000928000809280008092800080000000065
:1000F00000000000000000000000000009280008C7
:100100000000000009280008092800080928000844
:1001100000000000000000000000000000000000DF
:1001200009280008092800080928000809280008EB
:100130000928000800000000000000000000000086
:100140000000000000000000000000000928000876
:1001500009280008092800080928000809280008BB
:10016000092800080928000800000000000000001D
:10017000000000000000000000000000000000007F
:100180000000000009280008000000000000000036
:080190000928000809280008F5
:1001980053B94AB9002908BF00281CBF4FF0FF31E6
:1001A8004FF0FF3000F00CB8ADF1080C6DE904CE4B
:1001B80002F054FBDDF804E0DDE9022304B07047E7
:1001C800704700BF0348044B834202D0034B03B17E
:1001D800184770470C0000200C00002000000000A9
:1001E8000548064B1B1AD90F01EBA301491002D091
:1001F800034B03B1184770470C0000200C00002087
:100208000000000010B5064C237843B9FFF7DAFF69
:10021800044B13B10448AFF300800123237010BDD1
:100228000C000020000000002C2B000808B5054B2E
:100238001BB105490548AFF30080BDE80840FFF74A
:10024800CFBF00BF00000000100000202C2B0008CA
:1002580080B582B000AF00233B6002F001FA00F0E5
:1002680003F900F0EBF900F067F900217A4800F093
:1002780049FC0421784800F045FC00237B6070E0CD
:10028800754B1B68DB6A7A6803FB02F2724B1B68CA
:100298007249A1FB021252095A6300224FF40071FD
:1002A8006F4800F095FA0346002B25D03B68C72B12
:1002B80010D83B6819333B60674B1B68DB6A3A68A8
:1002C80003FB02F2644B1B686449A1FB021292090A
:1002D8009A6311E03B68C72B0ED9C8233B605E4B7D
:1002E8001B68DB6A3A6803FB02F25B4B1B685B49DD
:1002F800A1FB021292099A6300224FF40041594867
:1003080000F066FA0346002B25D03B68002B10D07E
:100318003B68193B3B60504B1B68DB6A3A6803FB40
:1003280002F24D4B1B684D49A1FB021292099A63D8
:1003380011E03B68002B0ED100233B60464B1B6845
:10034800DB6A3A6803FB02F2434B1B684349A1FB93
:10035800021292099A63282002F0F4F97B680133AB
:100368007B607B68632B8BD964237B6070E03A4B9E
:100378001B68DB6A7A6803FB02F2374B1B68374954
:10038800A1FB021252095A6300224FF4007134484B
:1003980000F01EFA0346002B25D03B68C72B10D867
:1003A8003B6819333B602C4B1B68DB6A3A6803FBDC
:1003B80002F2294B1B682949A1FB021292099A6390
:1003C80011E03B68C72B0ED9C8233B60224B1B6842
:1003D800DB6A3A6803FB02F21F4B1B681F49A1FB4B
:1003E800021292099A6300224FF400411D4800F05E
:1003F800EFF90346002B25D03B68002B10D03B6853
:10040800193B3B60144B1B68DB6A3A6803FB02F23A
:10041800114B1B681149A1FB021292099A6311E062
:100428003B68002B0ED100233B600B4B1B68DB6A3B
:100438003A6803FB02F2084B1B680849A1FB021249
:1004480092099A63142002F07DF97B68013B7B6076
:100458007B68002B8BD110E7280000201F85EB510B
:10046800000002400004024080B594B000AF07F1DC
:10047800200330220021184602F0C3F907F10C03CB
:1004880000221A605A609A60DA601A610023BB6021
:10049800274B1B6C264A43F080531364244B1B6C78
:1004A80003F08053BB60BB6800237B60214B1B6853
:1004B800204A43F4404313601E4B1B6803F4404337
:1004C8007B607B6801233B624FF480337B620223AD
:1004D800BB634FF48003FB6319233B64C0237B6435
:1004E8000223BB640423FB6407F12003184601F0D0
:1004F800CBF90346002B01D000F01EF90F23FB6057
:1005080002233B6100237B614FF48053BB610023CE
:10051800FB6107F10C030321184601F02DFC03468B
:10052800002B01D000F008F900BF5037BD4680BD50
:10053800003802400070004080B58EB000AF07F16F
:10054800280300221A605A609A60DA6007F12003D3
:1005580000221A605A603B1D00221A605A609A6095
:10056800DA601A615A619A61324B334A1A60314B28
:1005780000225A602F4B00229A602E4B41F20F62E4
:10058800DA602C4B00221A612A4B00229A61294812
:1005980000F010FA0346002B01D000F0CDF84FF41C
:1005A8008053BB6207F128031946224800F024FD56
:1005B8000346002B01D000F0BFF81E4800F049FAAE
:1005C8000346002B01D000F0B7F800233B6200235C
:1005D8007B6207F120031946164801F0D3F8034659
:1005E800002B01D000F0A8F860237B6040F60833A8
:1005F800BB600023FB6000237B613B1D0022194682
:100608000C4800F037FC0346002B01D000F094F8AA
:100618003B1D04221946074800F02CFC0346002B1A
:1006280001D000F089F8034800F08AF900BF383794
:10063800BD4680BD280000200004004080B58AB077
:1006480000AF07F1140300221A605A609A60DA605A
:100658001A6100233B61344B1B6B334A43F004039C
:100668001363314B1B6B03F004033B613B690023AD
:10067800FB602D4B1B6B2C4A43F0800313632A4B02
:100688001B6B03F08003FB60FB680023BB60264BF9
:100698001B6B254A43F001031363234B1B6B03F0C9
:1006A8000103BB60BB6800237B601F4B1B6B1E4AAA
:1006B80043F0020313631C4B1B6B03F002037B60C4
:1006C8007B6800224FF40051184801F09DFE4FF45A
:1006D80000537B610123BB610023FB6100233B6264
:1006E80007F114031946114801F0F2FC4FF40043D6
:1006F8007B610023BB610023FB6107F114031946EA
:100708000B4801F0E5FC4FF400737B610023BB61EB
:100718000023FB6107F114031946064801F0D8FCD1
:1007280000BF2837BD4680BD00380240000802409F
:10073800000402400000024080B400AF72B600BF5F
:10074800FEE780B586B000AF78600B467B80134625
:100758003B800523FB600023FB740023BB7400234C
:100768003B8200237B6118E07B881946786801F09A
:1007780033FE0346002B05D0FB7C0133FB740023BA
:10078800BB7404E0BB7C0133BB740023FB74012001
:1007980001F0D8FF7B6901337B617A69FB689A4273
:1007A800E2D33B88002B07D0FA7CFB685B089A42AF
:1007B80009D9FF233B8206E0BA7CFB685B089A42B2
:1007C80001D9FF233B823B8A18461837BD4680BDB6
:1007D80080B582B000AF78600B467B8013463B80C3
:1007E8003A887B8819467868FFF7ABFF0346002BE9
:1007F80017D03B88002B09D000BF7B881946786842
:1008080001F0EAFD0346002BF7D108E000BF7B8822
:100818001946786801F0E0FD0346002BF7D0FF2366
:1008280000E0002318460837BD4680BD80B400AFFD
:1008380000BFFDE780B400AF00BFFDE780B400AFA4
:1008480000BFFDE780B400AF00BFFDE780B400AF94
:1008580000BFFDE780B400AF00BFBD465DF8047B74
:10086800704780B400AF00BFBD465DF8047B704799
:1008780080B400AF00BFBD465DF8047B704780B50B
:1008880000AF01F03FFF00BF80BD000080B500AFA2
:10089800024800F0E7F900BF80BD00BF2800002033
:1008A80080B483B000AF00237B60104B5B6C0F4AB1
:1008B80043F4804353640D4B5B6C03F480437B60CB
:1008C8007B6800233B60094B1B6C084A43F080534C
:1008D8001364064B1B6C03F080533B603B6800BFFE
:1008E8000C37BD465DF8047B704700BF00380240F6
:1008F80080B584B000AF78607B681B680E4A93426D
:1009080015D10023FB600D4B1B6C0C4A43F002030E
:1009180013640A4B1B6C03F00203FB60FB680022A4
:1009280000211D2001F065FE1D2001F07EFE00BFA4
:100938001037BD4680BD00BF0004004000380240AB
:1009480080B588B000AF786007F10C0300221A6008
:100958005A609A60DA601A617B681B68124A93428F
:100968001DD10023BB60114B1B6B104A43F00103E0
:1009780013630E4B1B6B03F00103BB60BB68C02302
:10098800FB6002233B6100237B610023BB610223E0
:10099800FB6107F10C031946054801F099FB00BFFC
:1009A8002037BD4680BD00BF00040040003802402B
:1009B8000000024080B582B000AF78607B68002BF1
:1009C80001D1012341E07B6893F83D30DBB2002B75
:1009D80006D17B68002283F83C207868FFF788FFFF
:1009E8007B68022283F83D207B681A687B680433A1
:1009F8001946104600F0FAFB7B68012283F846206E
:100A08007B68012283F83E207B68012283F83F201F
:100A18007B68012283F840207B68012283F841200B
:100A28007B68012283F842207B68012283F84320F7
:100A38007B68012283F844207B68012283F84520E3
:100A48007B68012283F83D20002318460837BD46FD
:100A580080BD80B582B000AF78607B68002B01D183
:100A6800012341E07B6893F83D30DBB2002B06D1CF
:100A78007B68002283F83C20786800F039F87B68AE
:100A8800022283F83D207B681A687B680433194684
:100A9800104600F0ABFB7B68012283F846207B6898
:100AA800012283F83E207B68012283F83F207B687F
:100AB800012283F840207B68012283F841207B686B
:100AC800012283F842207B68012283F843207B6857
:100AD800012283F844207B68012283F845207B6843
:100AE800012283F83D20002318460837BD4680BD03
:100AF80080B483B000AF786000BF0C37BD465DF8A6
:100B0800047B704780B584B000AF786039603B687B
:100B1800002B09D17B6893F83E30DBB2012B14BF60
:100B280001230023DBB222E03B68042B09D17B6858
:100B380093F83F30DBB2012B14BF01230023DBB253
:100B480015E03B68082B09D17B6893F84030DBB28D
:100B5800012B14BF01230023DBB208E07B6893F864
:100B68004130DBB2012B14BF01230023DBB2002B81
:100B780001D0012368E03B68002B04D17B68022286
:100B880083F83E2013E03B68042B04D17B680222E3
:100B980083F83F200BE03B68082B04D17B680222D6
:100BA80083F8402003E07B68022283F841207B68B9
:100BB8001B6801223968184600F0BEFD7B681B6877
:100BC800234A934207D17B681B685A6C7B681B6871
:100BD80042F400425A647B681B681D4A934218D04D
:100BE8007B681B68B3F1804F13D07B681B68194A78
:100BF80093420ED07B681B68174A934209D07B68E2
:100C08001B68164A934204D07B681B68144A9342B7
:100C180011D17B681B689B6803F00703FB60FB68C6
:100C2800062B10D07B681B681A687B681B6842F02B
:100C380001021A6007E07B681B681A687B681B68FA
:100C480042F001021A60002318461037BD4680BDE5
:100C5800000001400004004000080040000C004073
:100C68000040014080B582B000AF78607B681B68A7
:100C78001B6903F00203022B22D17B681B68DB6827
:100C880003F00203022B1BD17B681B686FF0020282
:100C98001A617B6801221A777B681B689B6903F0DD
:100CA8000303002B03D0786800F081FA05E0786828
:100CB80000F073FA786800F084FA7B6800221A77EB
:100CC8007B681B681B6903F00403042B22D17B6833
:100CD8001B68DB6803F00403042B1BD17B681B68CB
:100CE8006FF004021A617B6802221A777B681B681E
:100CF8009B6903F44073002B03D0786800F057FA1F
:100D080005E0786800F049FA786800F05AFA7B68DC
:100D180000221A777B681B681B6903F00803082BFD
:100D280022D17B681B68DB6803F00803082B1BD102
:100D38007B681B686FF008021A617B6804221A77C7
:100D48007B681B68DB6903F00303002B03D078681A
:100D580000F02DFA05E0786800F01FFA786800F0D6
:100D680030FA7B6800221A777B681B681B6903F0DE
:100D78001003102B22D17B681B68DB6803F010037B
:100D8800102B1BD17B681B686FF010021A617B68FF
:100D980008221A777B681B68DB6903F44073002B11
:100DA80003D0786800F003FA05E0786800F0F5F9F8
:100DB800786800F006FA7B6800221A777B681B685F
:100DC8001B6903F00103012B0ED17B681B68DB68EC
:100DD80003F00103012B07D17B681B686FF0010248
:100DE8001A61786800F0CFF97B681B681B6903F00B
:100DF8008003802B0ED17B681B68DB6803F08003BF
:100E0800802B07D17B681B686FF080021A617868B5
:100E180000F030FD7B681B681B6903F04003402B22
:100E28000ED17B681B68DB6803F04003402B07D1B9
:100E38007B681B686FF040021A61786800F0CBF994
:100E48007B681B681B6903F02003202B0ED17B688D
:100E58001B68DB6803F02003202B07D17B681B6825
:100E68006FF020021A61786800F0FAFC00BF0837BA
:100E7800BD4680BD80B586B000AFF860B9607A60C5
:100E88000023FB75FB6893F83C30012B01D102234A
:100E9800AEE0FB68012283F83C207B680C2B00F253
:100EA8009F8001A252F823F0E50E0008E90F000820
:100EB800E90F0008E90F0008250F0008E90F0008EE
:100EC800E90F0008E90F0008670F0008E90F00089C
:100ED800E90F0008E90F0008A70F0008FB681B6866
:100EE800B968184600F002FAFB681B689A69FB6843
:100EF8001B6842F008029A61FB681B689A69FB68E4
:100F08001B6822F004029A61FB681B689969BB6838
:100F18001A69FB681B680A439A6164E0FB681B68EE
:100F2800B968184600F048FAFB681B689A69FB68BC
:100F38001B6842F400629A61FB681B689A69FB6847
:100F48001B6822F480629A61FB681B689969BB6818
:100F58001B691A02FB681B680A439A6143E0FB6835
:100F68001B68B968184600F093FAFB681B68DA69D1
:100F7800FB681B6842F00802DA61FB681B68DA69E3
:100F8800FB681B6822F00402DA61FB681B68D969F8
:100F9800BB681A69FB681B680A43DA6123E0FB68CF
:100FA8001B68B968184600F0DDFAFB681B68DA6947
:100FB800FB681B6842F40062DA61FB681B68DA6947
:100FC800FB681B6822F48062DA61FB681B68D969D8
:100FD800BB681B691A02FB681B680A43DA6102E0F6
:100FE8000123FB7500BFFB68002283F83C20FB7DD2
:100FF80018461837BD4680BD80B584B000AF78600C
:1010080039600023FB737B6893F83C30012B01D1D6
:101018000223B4E07B68012283F83C207B6802222B
:1010280083F83D207B681B689B68BB60BB6823F026
:101038007703BB60BB6823F47F43BB607B681B6896
:10104800BA689A603B681B68B3F5005F3ED0B3F599
:10105800005F00F28780B3F5805F00F08680B3F50B
:10106800805F7FD8702B1AD0702B7BD8602B50D024
:10107800602B77D8502B3CD0502B73D8402B58D0AE
:10108800402B6FD8302B64D0302B6BD8202B60D0FE
:10109800202B67D8002B5CD0102B5AD062E07B68DD
:1010A80018683B6899683B685A683B68DB6800F0D9
:1010B80023FB7B681B689B68BB60BB6843F07703B6
:1010C800BB607B681B68BA689A604FE07B681868E9
:1010D8003B6899683B685A683B68DB6800F00CFB22
:1010E8007B681B689A687B681B6842F480429A6038
:1010F8003CE07B6818683B6859683B68DB681A46BF
:1011080000F080FA7B681B685021184600F0D9FA75
:101118002CE07B6818683B6859683B68DB681A46AE
:1011280000F09FFA7B681B686021184600F0C9FA36
:101138001CE07B6818683B6859683B68DB681A469E
:1011480000F060FA7B681B684021184600F0B9FA85
:101158000CE07B681A683B681B681946104600F06B
:10116800B0FA03E00123FB7300E000BF7B680122B3
:1011780083F83D207B68002283F83C20FB7B1846DF
:101188001037BD4680BD80B483B000AF786000BF23
:101198000C37BD465DF8047B704780B483B000AF60
:1011A800786000BF0C37BD465DF8047B704780B49B
:1011B80083B000AF786000BF0C37BD465DF8047B94
:1011C800704780B483B000AF786000BF0C37BD466D
:1011D8005DF8047B704780B483B000AF786000BFCF
:1011E8000C37BD465DF8047B7047000080B485B0BD
:1011F80000AF786039607B681B68FB607B68344AA5
:1012080093420FD07B68B3F1804F0BD07B68314A93
:10121800934207D07B68304A934203D07B682F4AB9
:10122800934208D1FB6823F07003FB603B685B685E
:10123800FA681343FB607B68254A93421BD07B689E
:10124800B3F1804F17D07B68224A934213D07B6852
:10125800214A93420FD07B68204A93420BD07B6887
:101268001F4A934207D07B681E4A934203D07B688B
:101278001D4A934208D1FB6823F44073FB603B6826
:10128800DB68FA681343FB60FB6823F080023B6865
:101298005B691343FB607B68FA681A603B689A686D
:1012A8007B68DA623B681A687B689A627B68084ADE
:1012B800934203D13B681A697B681A637B680122F1
:1012C8005A6100BF1437BD465DF8047B704700BF04
:1012D800000001400004004000080040000C0040ED
:1012E80000400140004401400048014080B487B0FC
:1012F80000AF786039607B681B6A23F001027B6865
:101308001A627B681B6A7B617B685B683B617B68F0
:101318009B69FB60FB6823F07003FB60FB6823F0AC
:101328000303FB603B681B68FA681343FB607B6937
:1013380023F002037B613B689B687A6913437B61F6
:101348007B681C4A93420CD17B6923F008037B61BC
:101358003B68DB687A6913437B617B6923F004038C
:101368007B617B68134A934211D13B6923F48073F4
:101378003B613B6923F400733B613B685B693A69F5
:1013880013433B613B689B693A6913433B617B6844
:101398003A695A607B68FA689A613B685A687B6860
:1013A8005A637B687A691A6200BF1C37BD465DF8CC
:1013B800047B70470000014080B487B000AF7860BC
:1013C80039607B681B6A23F010027B681A627B68AD
:1013D8001B6A7B617B685B683B617B689B69FB6020
:1013E800FB6823F4E043FB60FB6823F44073FB6075
:1013F8003B681B681B02FA681343FB607B6923F098
:1014080020037B613B689B681B017A6913437B61FE
:101418007B681E4A93420DD17B6923F080037B6170
:101428003B68DB681B017A6913437B617B6923F0A6
:1014380040037B617B68154A934213D13B6923F4CF
:1014480080633B613B6923F400633B613B685B69F4
:101458009B003A6913433B613B689B699B003A696F
:1014680013433B617B683A695A607B68FA689A6102
:101478003B685A687B689A637B687A691A6200BF1E
:101488001C37BD465DF8047B704700BF0000014073
:1014980080B487B000AF786039607B681B6A23F43A
:1014A80080727B681A627B681B6A7B617B685B68F9
:1014B8003B617B68DB69FB60FB6823F07003FB60C2
:1014C800FB6823F00303FB603B681B68FA6813435F
:1014D800FB607B6923F400737B613B689B681B029C
:1014E8007A6913437B617B681D4A93420DD17B69FE
:1014F80023F400637B613B68DB681B027A69134352
:101508007B617B6923F480637B617B68144A934227
:1015180013D13B6923F480533B613B6923F40053A7
:101528003B613B685B691B013A6913433B613B685C
:101538009B691B013A6913433B617B683A695A60AE
:101548007B68FA68DA613B685A687B68DA637B68AB
:101558007A691A6200BF1C37BD465DF8047B704784
:101568000000014080B487B000AF786039607B68C4
:101578001B6A23F480527B681A627B681B6A3B6192
:101588007B685B687B617B68DB69FB60FB6823F4D5
:10159800E043FB60FB6823F44073FB603B681B6817
:1015A8001B02FA681343FB603B6923F400533B6159
:1015B8003B689B681B033A6913433B617B68104A8D
:1015C800934209D17B6923F480437B613B685B6963
:1015D8009B017A6913437B617B687A695A607B68EF
:1015E800FA68DA613B685A687B681A647B683A690A
:1015F8001A6200BF1C37BD465DF8047B704700BF08
:101608000000014080B487B000AFF860B9607A602C
:10161800FB681B6A7B61FB681B6A23F00102FB689D
:101628001A62FB689B693B613B6923F0F0033B61ED
:101638007B681B013A6913433B617B6923F00A030A
:101648007B617A69BB6813437B61FB683A699A617D
:10165800FB687A691A6200BF1C37BD465DF8047BD7
:10166800704780B487B000AFF860B9607A60FB68F3
:101678001B6A23F01002FB681A62FB689B697B6196
:10168800FB681B6A3B617B6923F470437B617B6861
:101698001B037A6913437B613B6923F0A0033B6119
:1016A800BB681B013A6913433B61FB687A699A611D
:1016B800FB683A691A6200BF1C37BD465DF8047BB7
:1016C800704780B485B000AF786039607B689B68EC
:1016D800FB60FB6823F07003FB603A68FB68134308
:1016E80043F00703FB607B68FA689A6000BF143711
:1016F800BD465DF8047B704780B487B000AFF860E2
:10170800B9607A603B60FB689B687B617B6923F406
:101718007F437B613B681A027B681A43BB681343AB
:101728007A6913437B61FB687A699A6000BF1C374A
:10173800BD465DF8047B704780B487B000AFF860A1
:10174800B9607A60BB6803F01F03012202FA03F351
:101758007B61FB681A6A7B69DB431A40FB681A6283
:10176800FB681A6ABB6803F01F03796801FA03F380
:101778001A43FB681A6200BF1C37BD465DF8047B3C
:101788007047000080B485B000AF786039607B682E
:1017980093F83C30012B01D1022350E07B680122F1
:1017A80083F83C207B68022283F83D207B681B6815
:1017B8005B68FB607B681B689B68BB60FB6823F009
:1017C8007003FB603B681B68FA681343FB607B6827
:1017D8001B68FA685A607B681B681C4A934218D0D9
:1017E8007B681B68B3F1804F13D07B681B68184A6D
:1017F80093420ED07B681B68164A934209D07B68D7
:101808001B68154A934204D07B681B68134A9342AD
:101818000CD1BB6823F08003BB603B685B68BA6887
:101828001343BB607B681B68BA689A607B680122B7
:1018380083F83D207B68002283F83C20002318466B
:101848001437BD465DF8047B704700BF00000140B7
:101858000004004000080040000C00400040014027
:1018680080B483B000AF786000BF0C37BD465DF828
:10187800047B704780B483B000AF786000BF0C373A
:10188800BD465DF8047B704780B586B000AF7860D0
:101898007B68002B01D1012367E27B681B6803F09A
:1018A8000103002B75D0884B9B6803F00C03042BB5
:1018B8000CD0854B9B6803F00C03082B12D1824B8C
:1018C8005B6803F48003B3F5800F0BD17E4B1B6874
:1018D80003F40033002B5BD07B685B68002B57D187
:1018E800012342E27B685B68B3F5803F06D1764B03
:1018F8001B68754A43F4803313601DE07B685B689E
:10190800B3F5A02F0CD1704B1B686F4A43F48023AA
:1019180013606D4B1B686C4A43F4803313600BE013
:10192800694B1B68684A23F480331360664B1B6855
:10193800654A23F4802313607B685B68002B13D00F
:1019480000F0F4FE386108E000F0F0FE02463B6962
:10195800D31A642B01D9032307E25B4B1B6803F4FA
:101968000033002BF0D014E000F0E0FE386108E00E
:1019780000F0DCFE02463B69D31A642B01D903232D
:10198800F3E1514B1B6803F40033002BF0D100E066
:1019980000BF7B681B6803F00203002B63D04A4B2F
:1019A8009B6803F00C03002B0BD0474B9B6803F09C
:1019B8000C03082B1CD1444B5B6803F48003002BF9
:1019C80016D1414B1B6803F00203002B05D07B683E
:1019D800DB68012B01D00123C7E13B4B1B6823F0D7
:1019E800F8027B681B69DB00374913430B603AE058
:1019F8007B68DB68002B20D0344B01221A6000F092
:101A080095FE386108E000F091FE02463B69D31A62
:101A1800022B01D90323A8E12B4B1B6803F0020317
:101A2800002BF0D0284B1B6823F0F8027B681B6959
:101A3800DB00254913430B6015E0244B00221A6094
:101A480000F074FE386108E000F070FE02463B6961
:101A5800D31A022B01D9032387E11B4B1B6803F020
:101A68000203002BF0D17B681B6803F00803002BEE
:101A780036D07B685B69002B16D0154B01221A60A3
:101A880000F054FE386108E000F050FE02463B6961
:101A9800D31A022B01D9032367E10B4B5B6F03F0C9
:101AA8000203002BF0D01BE0094B00221A6000F063
:101AB8003DFE38610EE000F039FE02463B69D31A5C
:101AC800022B07D9032350E10038024000004742A7
:101AD800800E4742884B5B6F03F00203002BEAD16C
:101AE8007B681B6803F00403002B00F09780002339
:101AF800FB75814B1B6C03F08053002B0FD1002327
:101B0800BB607D4B1B6C7C4A43F0805313647A4B5B
:101B18001B6C03F08053BB60BB680123FB75774BDC
:101B28001B6803F48073002B18D1744B1B68734A2D
:101B380043F48073136000F0F9FD386108E000F0A9
:101B4800F5FD02463B69D31A022B01D903230CE1A8
:101B58006A4B1B6803F48073002BF0D07B689B688A
:101B6800012B06D1644B1B6F634A43F001031367D3
:101B78001CE07B689B68052B0CD15F4B1B6F5E4A92
:101B880043F0040313675C4B1B6F5B4A43F001038C
:101B980013670BE0584B1B6F574A23F00103136779
:101BA800554B1B6F544A23F0040313677B689B68EB
:101BB800002B15D000F0BAFD38610AE000F0B6FD40
:101BC80002463B69D31A41F28832934201D9032372
:101BD800CBE0494B1B6F03F00203002BEED014E05F
:101BE80000F0A4FD38610AE000F0A0FD02463B6960
:101BF800D31A41F28832934201D90323B5E03E4B10
:101C08001B6F03F00203002BEED1FB7D012B05D1E6
:101C1800394B1B6C384A23F0805313647B689B69EB
:101C2800002B00F0A180344B9B6803F00C03082BB9
:101C38005CD07B689B69022B41D1314B00221A6032
:101C480000F074FD386108E000F070FD02463B6961
:101C5800D31A022B01D9032387E0274B1B6803F013
:101C68000073002BF0D17B68DA697B681B6A1A4322
:101C78007B685B6A9B011A437B689B6A5B08013B34
:101C88001B041A437B68DB6A1B061B4913434B6022
:101C98001B4B01221A6000F049FD386108E000F092
:101CA80045FD02463B69D31A022B01D903235CE0A8
:101CB800114B1B6803F00073002BF0D054E0104B5D
:101CC80000221A6000F032FD386108E000F02EFDB5
:101CD80002463B69D31A022B01D9032345E0064B80
:101CE8001B6803F00073002BF0D13DE07B689B6913
:101CF800012B07D1012338E0003802400070004072
:101D0800600047421B4B5B68FB607B689B69012B4B
:101D180028D0FB6803F480027B68DB699A4221D1F2
:101D2800FB6803F03F027B681B6A9A421AD1FA6883
:101D380047F6C07313407A68526A9201934211D1F0
:101D4800FB6803F440327B689B6A5B08013B1B0419
:101D58009A4207D1FB6803F070627B68DB6A1B0656
:101D68009A4201D0012300E0002318461837BD46E7
:101D780080BD00BF0038024080B584B000AF7860F5
:101D880039607B68002B01D10123CCE0684B1B68CC
:101D980003F007033A689A420CD9654B3A68D2B205
:101DA8001A70634B1B6803F007033A689A4201D024
:101DB8000123B8E07B681B6803F00203002B20D0E6
:101DC8007B681B6803F00403002B05D0594B9B6804
:101DD800584A43F4E05393607B681B6803F0080398
:101DE800002B05D0534B9B68524A43F460439360E1
:101DF800504B9B6823F0F0027B689B684D49134366
:101E08008B607B681B6803F00103002B44D07B6860
:101E18005B68012B07D1474B1B6803F40033002B89
:101E280019D101237FE07B685B68022B03D07B68B4
:101E38005B68032B07D13F4B1B6803F00073002B33
:101E480009D101236FE03B4B1B6803F00203002B11
:101E580001D1012367E0374B9B6823F003027B68BD
:101E68005B68344913438B6000F060FCF8600AE05B
:101E780000F05CFC0246FB68D31A41F288329342B8
:101E880001D903234FE02B4B9B6803F00C027B68BE
:101E98005B689B009A42EBD1254B1B6803F0070354
:101EA8003A689A420CD2224B3A68D2B21A70204B46
:101EB8001B6803F007033A689A4201D0012332E015
:101EC8007B681B6803F00403002B08D0194B9B6840
:101ED80023F4E0527B68DB68164913438B607B6808
:101EE8001B6803F00803002B09D0124B9B6823F4EE
:101EF80060427B681B69DB000E4913438B6000F06E
:101F080021F802460B4B9B681B0903F00F030A4993
:101F1800CB5C22FA03F3094A1360094B1B68184685
:101F280000F0C0FB002318461037BD4680BD00BF37
:101F3800003C024000380240442B00080800002002
:101F4800000000202DE9B04F90B000AF00237B6364
:101F58000023FB6300233B630023BB63594B9B684F
:101F680003F00C03082B0DD0082B00F2A180002BE6
:101F780002D0042B03D09BE0534BBB639BE0534B35
:101F8800BB6398E04F4B5B6803F03F037B634D4BAB
:101F98005B6803F48003002B28D04A4B5B689B09DD
:101FA80000223B627A623B6AC3F308000021474B78
:101FB80003FB01F2002300FB03F31344434AA0FB95
:101FC8000212FA620A46BA62FA6A1344FB627B6B2F
:101FD8000022BB61FA61D7E90623D7E90A01FEF7B7
:101FE800D7F802460B461346FB6353E0354B5B6854
:101FF8009B0900223B617A613B69C3F3080A4FF0F1
:10200800000B52465B464FF000004FF000015901AB
:1020180041EAD261500102460B46B2EB0A0863EB73
:102028000B094FF000024FF000034FEA891343EA0F
:1020380098634FEA8812B2EB080463EB09054FF086
:1020480000024FF00003EB0043EA5473E200144629
:102058001D4614EB0A033B6045EB0B037B604FF016
:1020680000024FF00003D7E9004529468B022146BC
:1020780043EA915321468A02104619467B6B002297
:10208800BB60FA60D7E90223FEF782F802460B46E6
:102098001346FB630B4B5B681B0C03F00303013314
:1020A8005B003B63FA6B3B6BB2FBF3F3BB6302E091
:1020B800054BBB6300BFBB6B18464037BD46BDE848
:1020C800B08F00BF003802400024F40040787D0142
:1020D80080B489B000AF7860396000237B61002349
:1020E8003B610023BB610023FB6159E10122FB69CD
:1020F80002FA03F37B613B681B687A6913403B6112
:102108003A697B699A4240F048813B685B6803F012
:102118000303012B05D03B685B6803F00303022B24
:1021280030D17B689B68BB61FB695B00032202FAC4
:1021380003F3DB43BA691340BB613B68DA68FB69A8
:102148005B0002FA03F3BA691343BB617B68BA699F
:102158009A607B685B68BB610122FB6902FA03F342
:10216800DB43BA691340BB613B685B681B0903F03A
:102178000102FB6902FA03F3BA691343BB617B6886
:10218800BA695A603B685B6803F00303032B17D0F6
:102198007B68DB68BB61FB695B00032202FA03F31F
:1021A800DB43BA691340BB613B689A68FB695B0013
:1021B80002FA03F3BA691343BB617B68BA69DA6050
:1021C8003B685B6803F00303022B23D1FB69DA0841
:1021D8007B68083253F82230BB61FB6903F00703C0
:1021E8009B000F2202FA03F3DB43BA691340BB6179
:1021F8003B681A69FB6903F007039B0002FA03F3C3
:10220800BA691343BB61FB69DA087B680832B969AC
:1022180043F822107B681B68BB61FB695B000322E3
:1022280002FA03F3DB43BA691340BB613B685B689E
:1022380003F00302FB695B0002FA03F3BA69134374
:10224800BB617B68BA691A603B685B6803F440331A
:10225800002B00F0A2800023FB60574B5B6C564AB2
:1022680043F480435364544B5B6C03F48043FB603A
:10227800FB68524AFB699B08023352F82330BB6162
:10228800FB6903F003039B000F2202FA03F3DB430D
:10229800BA691340BB617B68494A934219D07B688D
:1022A800484A934213D07B68474A93420DD07B68D3
:1022B800464A934207D07B68454A934201D104239A
:1022C80008E0072306E0032304E0022302E00123D9
:1022D80000E00023FA6902F0030292009340BA6911
:1022E8001343BB613549FB699B080233BA6941F85E
:1022F8002320384B9B68BB613B69DB43BA691340B9
:10230800BB613B685B6803F48013002B03D0BA6998
:102318003B691343BB612F4ABB6993602D4BDB6854
:10232800BB613B69DB43BA691340BB613B685B68CF
:1023380003F40013002B03D0BA693B691343BB6154
:10234800244ABB69D360234B5B68BB613B69DB43B1
:10235800BA691340BB613B685B6803F40033002B28
:1023680003D0BA693B691343BB611A4ABB6953601E
:10237800184B1B68BB613B69DB43BA691340BB61FF
:102388003B685B6803F48033002B03D0BA693B6970
:102398001343BB610F4ABB691360FB690133FB61DF
:1023A800FB690F2B7FF6A2AE00BF00BF2437BD46E6
:1023B8005DF8047B704700BF0038024000380140D8
:1023C800000002400004024000080240000C0240E5
:1023D80000100240003C014080B485B000AF786036
:1023E8000B467B807B681A697B881340002B02D0E0
:1023F8000123FB7301E00023FB73FB7B18461437B2
:10240800BD465DF8047B704780B483B000AF786048
:102418000B467B8013467B707B78002B03D07A8831
:102428007B689A6103E07B881A047B689A6100BF25
:102438000C37BD465DF8047B7047000080B485B05A
:1024480000AF78607B6803F00703FB600C4BDB6828
:10245800BB60BA684FF6FF031340BB60FB681A0203
:10246800BB68134343F0BF6343F40033BB60044AC3
:10247800BB68D36000BF1437BD465DF8047B704766
:1024880000ED00E080B400AF044BDB681B0A03F0EA
:1024980007031846BD465DF8047B704700ED00E071
:1024A80080B483B000AF0346FB7197F90730002B67
:1024B8000BDBFB7903F01F02074997F907305B092B
:1024C800012000FA02F241F8232000BF0C37BD4674
:1024D8005DF8047B704700BF00E100E080B483B082
:1024E80000AF03463960FB7197F90730002B0ADB10
:1024F8003B68DAB20C4997F907301201D2B20B44A3
:1025080083F800230AE03B68DAB20849FB7903F054
:102518000F03043B1201D2B20B441A7600BF0C37EA
:10252800BD465DF8047B704700E100E000ED00E087
:1025380080B489B000AFF860B9607A60FB6803F0D6
:102548000703FB61FB69C3F10703042B28BF0423BE
:10255800BB61FB690433062B02D9FB69033B00E02E
:1025680000237B614FF0FF32BB6902FA03F3DA43C1
:10257800BB681A407B699A404FF0FF317B6901FACA
:1025880003F3D9437B680B40134318462437BD46F1
:102598005DF8047B7047000080B582B000AF7860BA
:1025A8007B68013BB3F1807F01D301230FE00A4A26
:1025B8007B68013B53600F214FF0FF30FFF78EFF20
:1025C800054B00229A60044B07221A600023184624
:1025D8000837BD4680BD00BF10E000E080B582B07E
:1025E80000AF78607868FFF729FF00BF0837BD465D
:1025F80080BD80B586B000AF0346B9607A60FB73D2
:1026080000237B61FFF73EFF78617A68B9687869D3
:10261800FFF78EFF024697F90F3011461846FFF76D
:102628005DFF00BF1837BD4680BD80B582B000AFE2
:102638000346FB7197F907301846FFF731FF00BFD3
:102648000837BD4680BD80B582B000AF7860786835
:10265800FFF7A2FF034618460837BD4680BD0000B5
:1026680080B500AF0E4B1B680D4A43F4007313602E
:102678000B4B1B680A4A43F480631360084B1B68C2
:10268800074A43F4807313600320FFF7A7FF0F2066
:1026980000F008F8FEF704F90023184680BD00BFD3
:1026A800003C024080B582B000AF7860124B1A68D7
:1026B800124B1B7819464FF47A73B3FBF1F3B2FB54
:1026C800F3F31846FFF7BFFF0346002B01D00123A1
:1026D8000EE07B680F2B0AD8002279684FF0FF3094
:1026E800FFF787FF064A7B681360002300E0012399
:1026F80018460837BD4680BD0800002004000020A9
:102708000000002080B400AF064B1B781A46064B29
:102718001B681344044A136000BFBD465DF8047B80
:10272800704700BF040000207000002080B400AF94
:10273800034B1B681846BD465DF8047B704700BF15
:102748007000002080B584B000AF7860FFF7EEFF1E
:10275800B8607B68FB60FB68B3F1FF3F05D00A4BAC
:102768001B781A46FB681344FB6000BFFFF7DEFFC7
:102778000246BB68D31AFA689A42F7D800BF00BF6E
:102788001037BD4680BD00BF0400002080B400AFF4
:10279800064BD3F88830054A43F47003C2F88830F2
:1027A80000BFBD465DF8047B704700BF00ED00E048
:1027B800DFF834D00D480E490E4A002302E0D45801
:1027C800C4500433C4188C42F9D30B4A0B4C002371
:1027D80001E013600432A242FBD3FFF7D7FF00F0F9
:1027E80019F8FDF735FD70470000022000000020B1
:1027F8000C000020642B00080C000020740000204E
:10280800FEE702440346934200D1704703F8011BD8
:10281800F9E7000070B50D4D0D4C641BA41000269F
:10282800A64209D10B4D0C4C00F07CF9641BA41096
:102838000026A64205D170BD55F8043B98470136DD
:10284800EEE755F8043B98470136F2E75C2B0008A1
:102858005C2B00085C2B0008602B00082DE9F04772
:10286800089E0D4604460F46002B4AD18A429446DC
:1028780065D9B2FA82F343B102FA03FCC3F120022C
:102888009F4020FA02F217439C404FEA1C4E1FFA61
:102898008CF5B7FBFEF1220C0EFB117742EA0742DA
:1028A80001FB05F090420AD91CEB020201F1FF3747
:1028B80080F01C81904240F2198102396244121A58
:1028C800A4B2B2FBFEF00EFB102244EA024400FB65
:1028D80005F5A5420AD91CEB040400F1FF3280F08B
:1028E8000781A54240F204816444023840EA01406D
:1028F800641B00211EB1DC400023C6E90043BDE88B
:10290800F0878B4208D9002E00F0ED800021C6E93F
:1029180000050846BDE8F087B3FA83F1002949D1DC
:10292800AB4202D3824200F2F880841A65EB0302BC
:1029380001201746002EE2D0C6E90047DFE702B9BA
:10294800FFDEB2FA82F3002B40F090808A1A4FEA39
:102958001C471FFA8CFE0121B2FBF7F507FB152077
:10296800220C42EA00420EFB05F0904208D91CEB0B
:10297800020205F1FF3802D2904200F2CB804546B0
:10298800121AA4B2B2FBF7F007FB102244EA024481
:102998000EFB00FEA64508D91CEB040400F1FF322B
:1029A80002D2A64500F2BB801046A4EB0E0440EA12
:1029B80005409FE7C1F120078B4022FA07FC4CEA4B
:1029C800030C05FA01F420FA07F3FD404FEA1C490D
:1029D8002343B5FBF9F81FFA8CFE09FB18551C0CAC
:1029E80044EA054408FB0EF5A54202FA01F200FA92
:1029F80001F00BD91CEB040408F1FF3A80F0888041
:102A0800A54240F28580A8F102086444641B9DB287
:102A1800B4FBF9F309FB134445EA044403FB0EFE37
:102A2800A64508D91CEB040403F1FF356CD2A64572
:102A38006AD9023B644443EA0843A3FB0295A4EB2A
:102A48000E04AC42C846AE4656D353D056B1B0EB8E
:102A5800080264EB0E0404FA07F7CA40CC40174397
:102A6800C6E9007418460021BDE8F087C3F12001CB
:102A780002FA03FC20FA01F225FA01F19D402A43EB
:102A88004FEA1C471FFA8CFEB1FBF7F007FB101545
:102A9800110C41EA054100FB0EF58D4204FA03F4DE
:102AA80008D91CEB010100F1FF382FD28D422DD936
:102AB80002386144491B92B2B1FBF7F507FB1511C7
:102AC80042EA014205FB0EF1914208D91CEB0202D1
:102AD80005F1FF3816D2914214D9023D6244521AC8
:102AE80045EA004138E73146304608E73946E6E628
:102AF8001046FBE64845A9D2B9EB020865EB0C0E77
:102B0800013BA3E74546EAE72B4694E74046D1E771
:102B1800D0467BE7023D624432E708460AE7644450
:102B2800023842E7F8B500BFF8BC08BC9E467047BB
:0C2B3800F8B500BFF8BC08BC9E46704712
:102B44000000000000000000010203040607080959
:082B540010FDFF7F01000000ED
:042B5C003502000836
:042B60000D0200085A
:0C2B640010000000010000000024F4003C
:04000005080027B90F
:00000001FF
